{
  "address": "0x06e8a3b59043aA70a01d24A86496BFB1E20Cd96f",
  "abi": [
    {
      "inputs": [
        {
          "internalType": "address",
          "name": "underlyingToken",
          "type": "address"
        },
        {
          "internalType": "address",
          "name": "quoteToken",
          "type": "address"
        },
        {
          "internalType": "uint256",
          "name": "expiresAt",
          "type": "uint256"
        }
      ],
      "stateMutability": "nonpayable",
      "type": "constructor"
    },
    {
      "anonymous": false,
      "inputs": [
        {
          "indexed": true,
          "internalType": "address",
          "name": "owner",
          "type": "address"
        },
        {
          "indexed": true,
          "internalType": "address",
          "name": "spender",
          "type": "address"
        },
        {
          "indexed": false,
          "internalType": "uint256",
          "name": "value",
          "type": "uint256"
        }
      ],
      "name": "Approval",
      "type": "event"
    },
    {
      "anonymous": false,
      "inputs": [
        {
          "indexed": true,
          "internalType": "address",
          "name": "writer",
          "type": "address"
        },
        {
          "indexed": false,
          "internalType": "uint256",
          "name": "amount",
          "type": "uint256"
        }
      ],
      "name": "Cancel",
      "type": "event"
    },
    {
      "anonymous": false,
      "inputs": [
        {
          "indexed": true,
          "internalType": "address",
          "name": "recipient",
          "type": "address"
        },
        {
          "indexed": false,
          "internalType": "uint256",
          "name": "amount",
          "type": "uint256"
        }
      ],
      "name": "Claim",
      "type": "event"
    },
    {
      "anonymous": false,
      "inputs": [
        {
          "indexed": true,
          "internalType": "address",
          "name": "recipient",
          "type": "address"
        },
        {
          "indexed": false,
          "internalType": "uint256",
          "name": "amount",
          "type": "uint256"
        }
      ],
      "name": "CollectFee",
      "type": "event"
    },
    {
      "anonymous": false,
      "inputs": [
        {
          "indexed": true,
          "internalType": "address",
          "name": "recipient",
          "type": "address"
        },
        {
          "indexed": false,
          "internalType": "uint256",
          "name": "amount",
          "type": "uint256"
        }
      ],
      "name": "Exercise",
      "type": "event"
    },
    {
      "anonymous": false,
      "inputs": [
        {
          "indexed": true,
          "internalType": "address",
          "name": "previousOwner",
          "type": "address"
        },
        {
          "indexed": true,
          "internalType": "address",
          "name": "newOwner",
          "type": "address"
        }
      ],
      "name": "OwnershipTransferred",
      "type": "event"
    },
    {
      "anonymous": false,
      "inputs": [
        {
          "indexed": true,
          "internalType": "address",
          "name": "from",
          "type": "address"
        },
        {
          "indexed": true,
          "internalType": "address",
          "name": "to",
          "type": "address"
        },
        {
          "indexed": false,
          "internalType": "uint256",
          "name": "value",
          "type": "uint256"
        }
      ],
      "name": "Transfer",
      "type": "event"
    },
    {
      "anonymous": false,
      "inputs": [
        {
          "indexed": true,
          "internalType": "address",
          "name": "writer",
          "type": "address"
        },
        {
          "indexed": false,
          "internalType": "uint256",
          "name": "amount",
          "type": "uint256"
        }
      ],
      "name": "Write",
      "type": "event"
    },
    {
      "inputs": [
        {
          "internalType": "address",
          "name": "owner",
          "type": "address"
        },
        {
          "internalType": "address",
          "name": "spender",
          "type": "address"
        }
      ],
      "name": "allowance",
      "outputs": [
        {
          "internalType": "uint256",
          "name": "",
          "type": "uint256"
        }
      ],
      "stateMutability": "view",
      "type": "function"
    },
    {
      "inputs": [
        {
          "internalType": "address",
          "name": "spender",
          "type": "address"
        },
        {
          "internalType": "uint256",
          "name": "amount",
          "type": "uint256"
        }
      ],
      "name": "approve",
      "outputs": [
        {
          "internalType": "bool",
          "name": "",
          "type": "bool"
        }
      ],
      "stateMutability": "nonpayable",
      "type": "function"
    },
    {
      "inputs": [
        {
          "internalType": "address",
          "name": "account",
          "type": "address"
        }
      ],
      "name": "balanceOf",
      "outputs": [
        {
          "internalType": "uint256",
          "name": "",
          "type": "uint256"
        }
      ],
      "stateMutability": "view",
      "type": "function"
    },
    {
      "inputs": [
        {
          "internalType": "uint256",
          "name": "amount",
          "type": "uint256"
        }
      ],
      "name": "cancel",
      "outputs": [],
      "stateMutability": "nonpayable",
      "type": "function"
    },
    {
      "inputs": [],
      "name": "claim",
      "outputs": [],
      "stateMutability": "nonpayable",
      "type": "function"
    },
    {
      "inputs": [
        {
          "internalType": "address",
          "name": "",
          "type": "address"
        }
      ],
      "name": "collateral",
      "outputs": [
        {
          "internalType": "uint256",
          "name": "",
          "type": "uint256"
        }
      ],
      "stateMutability": "view",
      "type": "function"
    },
    {
      "inputs": [],
      "name": "collectFee",
      "outputs": [],
      "stateMutability": "nonpayable",
      "type": "function"
    },
    {
      "inputs": [],
      "name": "decimals",
      "outputs": [
        {
          "internalType": "uint8",
          "name": "",
          "type": "uint8"
        }
      ],
      "stateMutability": "view",
      "type": "function"
    },
    {
      "inputs": [
        {
          "internalType": "address",
          "name": "spender",
          "type": "address"
        },
        {
          "internalType": "uint256",
          "name": "subtractedValue",
          "type": "uint256"
        }
      ],
      "name": "decreaseAllowance",
      "outputs": [
        {
          "internalType": "bool",
          "name": "",
          "type": "bool"
        }
      ],
      "stateMutability": "nonpayable",
      "type": "function"
    },
    {
      "inputs": [
        {
          "internalType": "uint256",
          "name": "amount",
          "type": "uint256"
        }
      ],
      "name": "exercise",
      "outputs": [],
      "stateMutability": "nonpayable",
      "type": "function"
    },
    {
      "inputs": [],
      "name": "exerciseFee",
      "outputs": [
        {
          "internalType": "uint256",
          "name": "",
          "type": "uint256"
        }
      ],
      "stateMutability": "view",
      "type": "function"
    },
    {
      "inputs": [],
      "name": "exerciseFeeBalance",
      "outputs": [
        {
          "internalType": "uint256",
          "name": "",
          "type": "uint256"
        }
      ],
      "stateMutability": "view",
      "type": "function"
    },
    {
      "inputs": [],
      "name": "exercisedAmount",
      "outputs": [
        {
          "internalType": "uint256",
          "name": "",
          "type": "uint256"
        }
      ],
      "stateMutability": "view",
      "type": "function"
    },
    {
      "inputs": [],
      "name": "expiresAt",
      "outputs": [
        {
          "internalType": "uint256",
          "name": "",
          "type": "uint256"
        }
      ],
      "stateMutability": "view",
      "type": "function"
    },
    {
      "inputs": [
        {
          "internalType": "address",
          "name": "spender",
          "type": "address"
        },
        {
          "internalType": "uint256",
          "name": "addedValue",
          "type": "uint256"
        }
      ],
      "name": "increaseAllowance",
      "outputs": [
        {
          "internalType": "bool",
          "name": "",
          "type": "bool"
        }
      ],
      "stateMutability": "nonpayable",
      "type": "function"
    },
    {
      "inputs": [],
      "name": "name",
      "outputs": [
        {
          "internalType": "string",
          "name": "",
          "type": "string"
        }
      ],
      "stateMutability": "view",
      "type": "function"
    },
    {
      "inputs": [],
      "name": "owner",
      "outputs": [
        {
          "internalType": "address",
          "name": "",
          "type": "address"
        }
      ],
      "stateMutability": "view",
      "type": "function"
    },
    {
      "inputs": [],
      "name": "quoteToken",
      "outputs": [
        {
          "internalType": "address",
          "name": "",
          "type": "address"
        }
      ],
      "stateMutability": "view",
      "type": "function"
    },
    {
      "inputs": [],
      "name": "renounceOwnership",
      "outputs": [],
      "stateMutability": "nonpayable",
      "type": "function"
    },
    {
      "inputs": [],
      "name": "strikePrice",
      "outputs": [
        {
          "internalType": "uint256",
          "name": "",
          "type": "uint256"
        }
      ],
      "stateMutability": "view",
      "type": "function"
    },
    {
      "inputs": [],
      "name": "symbol",
      "outputs": [
        {
          "internalType": "string",
          "name": "",
          "type": "string"
        }
      ],
      "stateMutability": "view",
      "type": "function"
    },
    {
      "inputs": [],
      "name": "totalSupply",
      "outputs": [
        {
          "internalType": "uint256",
          "name": "",
          "type": "uint256"
        }
      ],
      "stateMutability": "view",
      "type": "function"
    },
    {
      "inputs": [
        {
          "internalType": "address",
          "name": "to",
          "type": "address"
        },
        {
          "internalType": "uint256",
          "name": "amount",
          "type": "uint256"
        }
      ],
      "name": "transfer",
      "outputs": [
        {
          "internalType": "bool",
          "name": "",
          "type": "bool"
        }
      ],
      "stateMutability": "nonpayable",
      "type": "function"
    },
    {
      "inputs": [
        {
          "internalType": "address",
          "name": "from",
          "type": "address"
        },
        {
          "internalType": "address",
          "name": "to",
          "type": "address"
        },
        {
          "internalType": "uint256",
          "name": "amount",
          "type": "uint256"
        }
      ],
      "name": "transferFrom",
      "outputs": [
        {
          "internalType": "bool",
          "name": "",
          "type": "bool"
        }
      ],
      "stateMutability": "nonpayable",
      "type": "function"
    },
    {
      "inputs": [
        {
          "internalType": "address",
          "name": "newOwner",
          "type": "address"
        }
      ],
      "name": "transferOwnership",
      "outputs": [],
      "stateMutability": "nonpayable",
      "type": "function"
    },
    {
      "inputs": [],
      "name": "underlyingToken",
      "outputs": [
        {
          "internalType": "address",
          "name": "",
          "type": "address"
        }
      ],
      "stateMutability": "view",
      "type": "function"
    },
    {
      "inputs": [
        {
          "internalType": "uint256",
          "name": "amount",
          "type": "uint256"
        }
      ],
      "name": "write",
      "outputs": [],
      "stateMutability": "nonpayable",
      "type": "function"
    }
  ],
  "transactionHash": "0x8452f3a817982281efa64324df3b40f7e75ec9324e5debec3d56211af5a40700",
  "args": [
    "0xd2a46071A279245b25859609C3de9305e6D5b3F2",
    "0xf3F8E2d3ab08BD619A794A85626970731c4174aA",
    1679266800
  ],
  "numDeployments": 1,
  "solcInputHash": "501ba8b529fd66ee32fa83540c509538",
  "bytecode": "0x6101606040523480156200001257600080fd5b506040516200268f3803806200268f83398101604081905262000035916200025f565b8282671bc16d674ec80000836103e86040518060400160405280601781526020017f417262697472756d20243220507574204f7074696f6e7300000000000000000081525060405180604001604052806008815260200167105490890c94155560c21b81525081818160039081620000ae919062000345565b506004620000bd828262000345565b5050600160055550620000d033620001f0565b6001600160a01b0380881660c052861660a08190526040805163313ce56760e01b8152905163313ce567916004808201926020929091908290030181865afa15801562000121573d6000803e3d6000fd5b505050506040513d601f19601f8201168201806040525081019062000147919062000411565b6200015490602462000453565b6200016190600a62000572565b60e08181525050866001600160a01b031663313ce5676040518163ffffffff1660e01b8152600401602060405180830381865afa158015620001a7573d6000803e3d6000fd5b505050506040513d601f19601f82011682018060405250810190620001cd919062000411565b60ff16608052505061014092909252610100526101205250620005839350505050565b600680546001600160a01b038381166001600160a01b0319831681179093556040519116919082907f8be0079c531659141344cd1fd0a4f28419497f9722a3daafe3b4186f6b6457e090600090a35050565b80516001600160a01b03811681146200025a57600080fd5b919050565b6000806000606084860312156200027557600080fd5b620002808462000242565b9250620002906020850162000242565b9150604084015190509250925092565b634e487b7160e01b600052604160045260246000fd5b600181811c90821680620002cb57607f821691505b602082108103620002ec57634e487b7160e01b600052602260045260246000fd5b50919050565b601f8211156200034057600081815260208120601f850160051c810160208610156200031b5750805b601f850160051c820191505b818110156200033c5782815560010162000327565b5050505b505050565b81516001600160401b03811115620003615762000361620002a0565b6200037981620003728454620002b6565b84620002f2565b602080601f831160018114620003b15760008415620003985750858301515b600019600386901b1c1916600185901b1785556200033c565b600085815260208120601f198616915b82811015620003e257888601518255948401946001909101908401620003c1565b5085821015620004015787850151600019600388901b60f8161c191681555b5050505050600190811b01905550565b6000602082840312156200042457600080fd5b815160ff811681146200043657600080fd5b9392505050565b634e487b7160e01b600052601160045260246000fd5b60ff82811682821603908111156200046f576200046f6200043d565b92915050565b600181815b80851115620004b65781600019048211156200049a576200049a6200043d565b80851615620004a857918102915b93841c93908002906200047a565b509250929050565b600082620004cf575060016200046f565b81620004de575060006200046f565b8160018114620004f75760028114620005025762000522565b60019150506200046f565b60ff8411156200051657620005166200043d565b50506001821b6200046f565b5060208310610133831016604e8410600b841016171562000547575081810a6200046f565b62000553838362000475565b80600019048211156200056a576200056a6200043d565b029392505050565b60006200043660ff841683620004be565b60805160a05160c05160e0516101005161012051610140516120026200068d600039600081816103d90152818161062d01528181610660015281816108b8015281816108eb01528181610b6c01528181610f380152610f6b015260008181610400015261104b015260008181610340015281816105a60152818161083101528181610acd0152610eb101526000818161060901528181610684015281816108940152818161090f01528181610b9001528181610f140152610f8f01526000818161026001528181610cba015261100e01526000818161021301528181610703015281816109cc01528181610c300152818161109d015261122a015260006102a001526120026000f3fe608060405234801561001057600080fd5b50600436106101b95760003560e01c806370a08231116100f9578063a9059cbb11610097578063d1c699aa11610071578063d1c699aa146103fb578063d4d5d32a14610422578063dd62ed3e1461042a578063f2fde38b1461046357600080fd5b8063a9059cbb146103ae578063b07f0a41146103c1578063c52987cf146103d457600080fd5b80638da5cb5b116100d35780638da5cb5b1461036257806395d89b4114610373578063a457c2d71461037b578063a5fdc5de1461038e57600080fd5b806370a082311461030a578063715018a6146103335780638622a6891461033b57600080fd5b80632f048afa1161016657806340e58ee51161014057806340e58ee5146102dd5780634e71d92d146102f05780635e090e02146102f85780636b7ce5a71461030157600080fd5b80632f048afa14610284578063313ce5671461029957806339509351146102ca57600080fd5b8063217a4b7011610197578063217a4b701461021157806323b872dd1461024b5780632495a5991461025e57600080fd5b806306fdde03146101be578063095ea7b3146101dc57806318160ddd146101ff575b600080fd5b6101c6610476565b6040516101d39190611dc3565b60405180910390f35b6101ef6101ea366004611e12565b610508565b60405190151581526020016101d3565b6002545b6040519081526020016101d3565b7f00000000000000000000000000000000000000000000000000000000000000005b6040516001600160a01b0390911681526020016101d3565b6101ef610259366004611e3c565b610522565b7f0000000000000000000000000000000000000000000000000000000000000000610233565b610297610292366004611e78565b610548565b005b60405160ff7f00000000000000000000000000000000000000000000000000000000000000001681526020016101d3565b6101ef6102d8366004611e12565b610799565b6102976102eb366004611e78565b6107d8565b610297610a74565b61020360085481565b61020360095481565b610203610318366004611e91565b6001600160a01b031660009081526020819052604090205490565b610297610d72565b6102037f000000000000000000000000000000000000000000000000000000000000000081565b6006546001600160a01b0316610233565b6101c6610d86565b6101ef610389366004611e12565b610d95565b61020361039c366004611e91565b60076020526000908152604090205481565b6101ef6103bc366004611e12565b610e4a565b6102976103cf366004611e78565b610e58565b6102037f000000000000000000000000000000000000000000000000000000000000000081565b6102037f000000000000000000000000000000000000000000000000000000000000000081565b6102976111ab565b610203610438366004611eac565b6001600160a01b03918216600090815260016020908152604080832093909416825291909152205490565b610297610471366004611e91565b6112e3565b60606003805461048590611edf565b80601f01602080910402602001604051908101604052809291908181526020018280546104b190611edf565b80156104fe5780601f106104d3576101008083540402835291602001916104fe565b820191906000526020600020905b8154815290600101906020018083116104e157829003601f168201915b5050505050905090565b600033610516818585611373565b60019150505b92915050565b6000336105308582856114cc565b61053b85858561155e565b60019150505b9392505050565b60026005540361059f5760405162461bcd60e51b815260206004820152601f60248201527f5265656e7472616e637947756172643a207265656e7472616e742063616c6c0060448201526064015b60405180910390fd5b60026005557f00000000000000000000000000000000000000000000000000000000000000004211156106055760405162461bcd60e51b815260206004820152600e60248201526d13d4151253d397d156141254915160921b6044820152606401610596565b60007f00000000000000000000000000000000000000000000000000000000000000006106527f000000000000000000000000000000000000000000000000000000000000000084611f2f565b61065c9190611f46565b90507f00000000000000000000000000000000000000000000000000000000000000006106a97f000000000000000000000000000000000000000000000000000000000000000083611f2f565b6106b39190611f46565b9150600082116106f65760405162461bcd60e51b815260206004820152600e60248201526d1253959053125117d05353d5539560921b6044820152606401610596565b61072b6001600160a01b037f000000000000000000000000000000000000000000000000000000000000000016333084611775565b336000908152600760205260408120805483929061074a908490611f68565b9091555061075a905033836117fd565b60405182815233907f3802ba8117dc6bf5de2a857e440679e83bb0f9b68094ede7167234a5f97319ed906020015b60405180910390a250506001600555565b3360008181526001602090815260408083206001600160a01b038716845290915281205490919061051690829086906107d3908790611f68565b611373565b60026005540361082a5760405162461bcd60e51b815260206004820152601f60248201527f5265656e7472616e637947756172643a207265656e7472616e742063616c6c006044820152606401610596565b60026005557f00000000000000000000000000000000000000000000000000000000000000004211156108905760405162461bcd60e51b815260206004820152600e60248201526d13d4151253d397d156141254915160921b6044820152606401610596565b60007f00000000000000000000000000000000000000000000000000000000000000006108dd7f000000000000000000000000000000000000000000000000000000000000000084611f2f565b6108e79190611f46565b90507f00000000000000000000000000000000000000000000000000000000000000006109347f000000000000000000000000000000000000000000000000000000000000000083611f2f565b61093e9190611f46565b9150600082116109815760405162461bcd60e51b815260206004820152600e60248201526d1253959053125117d05353d5539560921b6044820152606401610596565b33600090815260076020526040812080548392906109a0908490611f7b565b909155506109b0905033836118dc565b60405163a9059cbb60e01b8152336004820152602481018290527f00000000000000000000000000000000000000000000000000000000000000006001600160a01b03169063a9059cbb906044016020604051808303816000875af1158015610a1d573d6000803e3d6000fd5b505050506040513d601f19601f82011682018060405250810190610a419190611f8e565b5060405182815233907f27f83af92b39768b17fe0c8d6922452702717efb8626d97e7a754e0b27d4f6d290602001610788565b600260055403610ac65760405162461bcd60e51b815260206004820152601f60248201527f5265656e7472616e637947756172643a207265656e7472616e742063616c6c006044820152606401610596565b60026005557f00000000000000000000000000000000000000000000000000000000000000004211610b3a5760405162461bcd60e51b815260206004820152601260248201527f4f5054494f4e5f4e4f545f4558504952454400000000000000000000000000006044820152606401610596565b6000610b4560025490565b9050600060085482610b579190611f68565b336000908152600760205260408120549192507f0000000000000000000000000000000000000000000000000000000000000000610bb57f000000000000000000000000000000000000000000000000000000000000000084611f2f565b610bbf9190611f46565b9050600083610bce8685611f2f565b610bd89190611f46565b905060008460085484610beb9190611f2f565b610bf59190611f46565b33600081815260076020526040808220919091555163a9059cbb60e01b81526004810191909152602481018490529091506001600160a01b037f0000000000000000000000000000000000000000000000000000000000000000169063a9059cbb906044016020604051808303816000875af1158015610c79573d6000803e3d6000fd5b505050506040513d601f19601f82011682018060405250810190610c9d9190611f8e565b5060405163a9059cbb60e01b8152336004820152602481018290527f00000000000000000000000000000000000000000000000000000000000000006001600160a01b03169063a9059cbb906044016020604051808303816000875af1158015610d0b573d6000803e3d6000fd5b505050506040513d601f19601f82011682018060405250810190610d2f9190611f8e565b5060405183815233907f47cee97cb7acd717b3c0aa1435d004cd5b3c8c57d70dbceb4e4458bbd60e39d49060200160405180910390a25050600160055550505050565b610d7a611a5e565b610d846000611ab8565b565b60606004805461048590611edf565b3360008181526001602090815260408083206001600160a01b038716845290915281205490919083811015610e325760405162461bcd60e51b815260206004820152602560248201527f45524332303a2064656372656173656420616c6c6f77616e63652062656c6f7760448201527f207a65726f0000000000000000000000000000000000000000000000000000006064820152608401610596565b610e3f8286868403611373565b506001949350505050565b60003361051681858561155e565b600260055403610eaa5760405162461bcd60e51b815260206004820152601f60248201527f5265656e7472616e637947756172643a207265656e7472616e742063616c6c006044820152606401610596565b60026005557f0000000000000000000000000000000000000000000000000000000000000000421115610f105760405162461bcd60e51b815260206004820152600e60248201526d13d4151253d397d156141254915160921b6044820152606401610596565b60007f0000000000000000000000000000000000000000000000000000000000000000610f5d7f000000000000000000000000000000000000000000000000000000000000000084611f2f565b610f679190611f46565b90507f0000000000000000000000000000000000000000000000000000000000000000610fb47f000000000000000000000000000000000000000000000000000000000000000083611f2f565b610fbe9190611f46565b9150600082116110015760405162461bcd60e51b815260206004820152600e60248201526d1253959053125117d05353d5539560921b6044820152606401610596565b6110366001600160a01b037f000000000000000000000000000000000000000000000000000000000000000016333085611775565b61104033836118dc565b6000620f42406110707f000000000000000000000000000000000000000000000000000000000000000084611f2f565b61107a9190611f46565b9050806009600082825461108e9190611f68565b90915550506001600160a01b037f00000000000000000000000000000000000000000000000000000000000000001663a9059cbb336110cd8486611f7b565b6040517fffffffff0000000000000000000000000000000000000000000000000000000060e085901b1681526001600160a01b03909216600483015260248201526044016020604051808303816000875af1158015611130573d6000803e3d6000fd5b505050506040513d601f19601f820116820180604052508101906111549190611f8e565b5082600860008282546111679190611f68565b909155505060405183815233907f5a20425ee28c08dfaf53c051ce9fb1fdfedad2949379924d3313a74c2c61a2a59060200160405180910390a25050600160055550565b6111b3611a5e565b6002600554036112055760405162461bcd60e51b815260206004820152601f60248201527f5265656e7472616e637947756172643a207265656e7472616e742063616c6c006044820152606401610596565b600260055560095460405163a9059cbb60e01b815233600482015260248101919091527f00000000000000000000000000000000000000000000000000000000000000006001600160a01b03169063a9059cbb906044016020604051808303816000875af115801561127b573d6000803e3d6000fd5b505050506040513d601f19601f8201168201806040525081019061129f9190611f8e565b506000600981905560405190815233907fdfeef5879c25440d1418a79a16489f0e739d22ac040c8c76f7b998fc704edeb89060200160405180910390a26001600555565b6112eb611a5e565b6001600160a01b0381166113675760405162461bcd60e51b815260206004820152602660248201527f4f776e61626c653a206e6577206f776e657220697320746865207a65726f206160448201527f64647265737300000000000000000000000000000000000000000000000000006064820152608401610596565b61137081611ab8565b50565b6001600160a01b0383166113ee5760405162461bcd60e51b8152602060048201526024808201527f45524332303a20617070726f76652066726f6d20746865207a65726f2061646460448201527f72657373000000000000000000000000000000000000000000000000000000006064820152608401610596565b6001600160a01b03821661146a5760405162461bcd60e51b815260206004820152602260248201527f45524332303a20617070726f766520746f20746865207a65726f20616464726560448201527f73730000000000000000000000000000000000000000000000000000000000006064820152608401610596565b6001600160a01b0383811660008181526001602090815260408083209487168084529482529182902085905590518481527f8c5be1e5ebec7d5bd14f71427d1e84f3dd0314c0f7b2291e5b200ac8c7c3b92591015b60405180910390a3505050565b6001600160a01b038381166000908152600160209081526040808320938616835292905220546000198114611558578181101561154b5760405162461bcd60e51b815260206004820152601d60248201527f45524332303a20696e73756666696369656e7420616c6c6f77616e63650000006044820152606401610596565b6115588484848403611373565b50505050565b6001600160a01b0383166115da5760405162461bcd60e51b815260206004820152602560248201527f45524332303a207472616e736665722066726f6d20746865207a65726f20616460448201527f64726573730000000000000000000000000000000000000000000000000000006064820152608401610596565b6001600160a01b0382166116565760405162461bcd60e51b815260206004820152602360248201527f45524332303a207472616e7366657220746f20746865207a65726f206164647260448201527f65737300000000000000000000000000000000000000000000000000000000006064820152608401610596565b6001600160a01b038316600090815260208190526040902054818110156116e55760405162461bcd60e51b815260206004820152602660248201527f45524332303a207472616e7366657220616d6f756e742065786365656473206260448201527f616c616e636500000000000000000000000000000000000000000000000000006064820152608401610596565b6001600160a01b0380851660009081526020819052604080822085850390559185168152908120805484929061171c908490611f68565b92505081905550826001600160a01b0316846001600160a01b03167fddf252ad1be2c89b69c2b068fc378daa952ba7f163c4a11628f55a4df523b3ef8460405161176891815260200190565b60405180910390a3611558565b604080516001600160a01b0385811660248301528416604482015260648082018490528251808303909101815260849091019091526020810180517bffffffffffffffffffffffffffffffffffffffffffffffffffffffff167f23b872dd00000000000000000000000000000000000000000000000000000000179052611558908590611b22565b6001600160a01b0382166118535760405162461bcd60e51b815260206004820152601f60248201527f45524332303a206d696e7420746f20746865207a65726f2061646472657373006044820152606401610596565b80600260008282546118659190611f68565b90915550506001600160a01b03821660009081526020819052604081208054839290611892908490611f68565b90915550506040518181526001600160a01b038316906000907fddf252ad1be2c89b69c2b068fc378daa952ba7f163c4a11628f55a4df523b3ef9060200160405180910390a35050565b6001600160a01b0382166119585760405162461bcd60e51b815260206004820152602160248201527f45524332303a206275726e2066726f6d20746865207a65726f2061646472657360448201527f73000000000000000000000000000000000000000000000000000000000000006064820152608401610596565b6001600160a01b038216600090815260208190526040902054818110156119e75760405162461bcd60e51b815260206004820152602260248201527f45524332303a206275726e20616d6f756e7420657863656564732062616c616e60448201527f63650000000000000000000000000000000000000000000000000000000000006064820152608401610596565b6001600160a01b0383166000908152602081905260408120838303905560028054849290611a16908490611f7b565b90915550506040518281526000906001600160a01b038516907fddf252ad1be2c89b69c2b068fc378daa952ba7f163c4a11628f55a4df523b3ef906020016114bf565b505050565b6006546001600160a01b03163314610d845760405162461bcd60e51b815260206004820181905260248201527f4f776e61626c653a2063616c6c6572206973206e6f7420746865206f776e65726044820152606401610596565b600680546001600160a01b038381167fffffffffffffffffffffffff0000000000000000000000000000000000000000831681179093556040519116919082907f8be0079c531659141344cd1fd0a4f28419497f9722a3daafe3b4186f6b6457e090600090a35050565b6000611b77826040518060400160405280602081526020017f5361666545524332303a206c6f772d6c6576656c2063616c6c206661696c6564815250856001600160a01b0316611c079092919063ffffffff16565b805190915015611a595780806020019051810190611b959190611f8e565b611a595760405162461bcd60e51b815260206004820152602a60248201527f5361666545524332303a204552433230206f7065726174696f6e20646964206e60448201527f6f742073756363656564000000000000000000000000000000000000000000006064820152608401610596565b6060611c168484600085611c1e565b949350505050565b606082471015611c965760405162461bcd60e51b815260206004820152602660248201527f416464726573733a20696e73756666696369656e742062616c616e636520666f60448201527f722063616c6c00000000000000000000000000000000000000000000000000006064820152608401610596565b6001600160a01b0385163b611ced5760405162461bcd60e51b815260206004820152601d60248201527f416464726573733a2063616c6c20746f206e6f6e2d636f6e74726163740000006044820152606401610596565b600080866001600160a01b03168587604051611d099190611fb0565b60006040518083038185875af1925050503d8060008114611d46576040519150601f19603f3d011682016040523d82523d6000602084013e611d4b565b606091505b5091509150611d5b828286611d66565b979650505050505050565b60608315611d75575081610541565b825115611d855782518084602001fd5b8160405162461bcd60e51b81526004016105969190611dc3565b60005b83811015611dba578181015183820152602001611da2565b50506000910152565b6020815260008251806020840152611de2816040850160208701611d9f565b601f01601f19169190910160400192915050565b80356001600160a01b0381168114611e0d57600080fd5b919050565b60008060408385031215611e2557600080fd5b611e2e83611df6565b946020939093013593505050565b600080600060608486031215611e5157600080fd5b611e5a84611df6565b9250611e6860208501611df6565b9150604084013590509250925092565b600060208284031215611e8a57600080fd5b5035919050565b600060208284031215611ea357600080fd5b61054182611df6565b60008060408385031215611ebf57600080fd5b611ec883611df6565b9150611ed660208401611df6565b90509250929050565b600181811c90821680611ef357607f821691505b602082108103611f1357634e487b7160e01b600052602260045260246000fd5b50919050565b634e487b7160e01b600052601160045260246000fd5b808202811582820484141761051c5761051c611f19565b600082611f6357634e487b7160e01b600052601260045260246000fd5b500490565b8082018082111561051c5761051c611f19565b8181038181111561051c5761051c611f19565b600060208284031215611fa057600080fd5b8151801515811461054157600080fd5b60008251611fc2818460208701611d9f565b919091019291505056fea26469706673582212202531c2221c9ea73361f35ddcc0d7a44762935a8a1795bf220dc68b941604fef464736f6c63430008110033",
  "devdoc": {
    "kind": "dev",
    "methods": {
      "allowance(address,address)": {
        "details": "See {IERC20-allowance}."
      },
      "approve(address,uint256)": {
        "details": "See {IERC20-approve}. NOTE: If `amount` is the maximum `uint256`, the allowance is not updated on `transferFrom`. This is semantically equivalent to an infinite approval. Requirements: - `spender` cannot be the zero address."
      },
      "balanceOf(address)": {
        "details": "See {IERC20-balanceOf}."
      },
      "decimals()": {
        "details": "Returns the number of decimals used to get its user representation. For example, if `decimals` equals `2`, a balance of `505` tokens should be displayed to a user as `5.05` (`505 / 10 ** 2`). Tokens usually opt for a value of 18, imitating the relationship between Ether and Wei. This is the value {ERC20} uses, unless this function is overridden; NOTE: This information is only used for _display_ purposes: it in no way affects any of the arithmetic of the contract, including {IERC20-balanceOf} and {IERC20-transfer}."
      },
      "decreaseAllowance(address,uint256)": {
        "details": "Atomically decreases the allowance granted to `spender` by the caller. This is an alternative to {approve} that can be used as a mitigation for problems described in {IERC20-approve}. Emits an {Approval} event indicating the updated allowance. Requirements: - `spender` cannot be the zero address. - `spender` must have allowance for the caller of at least `subtractedValue`."
      },
      "increaseAllowance(address,uint256)": {
        "details": "Atomically increases the allowance granted to `spender` by the caller. This is an alternative to {approve} that can be used as a mitigation for problems described in {IERC20-approve}. Emits an {Approval} event indicating the updated allowance. Requirements: - `spender` cannot be the zero address."
      },
      "name()": {
        "details": "Returns the name of the token."
      },
      "owner()": {
        "details": "Returns the address of the current owner."
      },
      "renounceOwnership()": {
        "details": "Leaves the contract without owner. It will not be possible to call `onlyOwner` functions anymore. Can only be called by the current owner. NOTE: Renouncing ownership will leave the contract without an owner, thereby removing any functionality that is only available to the owner."
      },
      "symbol()": {
        "details": "Returns the symbol of the token, usually a shorter version of the name."
      },
      "totalSupply()": {
        "details": "See {IERC20-totalSupply}."
      },
      "transfer(address,uint256)": {
        "details": "See {IERC20-transfer}. Requirements: - `to` cannot be the zero address. - the caller must have a balance of at least `amount`."
      },
      "transferFrom(address,address,uint256)": {
        "details": "See {IERC20-transferFrom}. Emits an {Approval} event indicating the updated allowance. This is not required by the EIP. See the note at the beginning of {ERC20}. NOTE: Does not update the allowance if the current allowance is the maximum `uint256`. Requirements: - `from` and `to` cannot be the zero address. - `from` must have a balance of at least `amount`. - the caller must have allowance for ``from``'s tokens of at least `amount`."
      },
      "transferOwnership(address)": {
        "details": "Transfers ownership of the contract to a new account (`newOwner`). Can only be called by the current owner."
      }
    },
    "version": 1
  },
  "userdoc": {
    "kind": "user",
    "methods": {},
    "version": 1
  },
  "storageLayout": {
    "storage": [
      {
        "astId": 168,
        "contract": "contracts/arbitrum/Arbitrum$2PutOption.sol:Arbitrum$2PutOption",
        "label": "_balances",
        "offset": 0,
        "slot": "0",
        "type": "t_mapping(t_address,t_uint256)"
      },
      {
        "astId": 174,
        "contract": "contracts/arbitrum/Arbitrum$2PutOption.sol:Arbitrum$2PutOption",
        "label": "_allowances",
        "offset": 0,
        "slot": "1",
        "type": "t_mapping(t_address,t_mapping(t_address,t_uint256))"
      },
      {
        "astId": 176,
        "contract": "contracts/arbitrum/Arbitrum$2PutOption.sol:Arbitrum$2PutOption",
        "label": "_totalSupply",
        "offset": 0,
        "slot": "2",
        "type": "t_uint256"
      },
      {
        "astId": 178,
        "contract": "contracts/arbitrum/Arbitrum$2PutOption.sol:Arbitrum$2PutOption",
        "label": "_name",
        "offset": 0,
        "slot": "3",
        "type": "t_string_storage"
      },
      {
        "astId": 180,
        "contract": "contracts/arbitrum/Arbitrum$2PutOption.sol:Arbitrum$2PutOption",
        "label": "_symbol",
        "offset": 0,
        "slot": "4",
        "type": "t_string_storage"
      },
      {
        "astId": 123,
        "contract": "contracts/arbitrum/Arbitrum$2PutOption.sol:Arbitrum$2PutOption",
        "label": "_status",
        "offset": 0,
        "slot": "5",
        "type": "t_uint256"
      },
      {
        "astId": 7,
        "contract": "contracts/arbitrum/Arbitrum$2PutOption.sol:Arbitrum$2PutOption",
        "label": "_owner",
        "offset": 0,
        "slot": "6",
        "type": "t_address"
      },
      {
        "astId": 1564,
        "contract": "contracts/arbitrum/Arbitrum$2PutOption.sol:Arbitrum$2PutOption",
        "label": "collateral",
        "offset": 0,
        "slot": "7",
        "type": "t_mapping(t_address,t_uint256)"
      },
      {
        "astId": 1566,
        "contract": "contracts/arbitrum/Arbitrum$2PutOption.sol:Arbitrum$2PutOption",
        "label": "exercisedAmount",
        "offset": 0,
        "slot": "8",
        "type": "t_uint256"
      },
      {
        "astId": 1568,
        "contract": "contracts/arbitrum/Arbitrum$2PutOption.sol:Arbitrum$2PutOption",
        "label": "exerciseFeeBalance",
        "offset": 0,
        "slot": "9",
        "type": "t_uint256"
      }
    ],
    "types": {
      "t_address": {
        "encoding": "inplace",
        "label": "address",
        "numberOfBytes": "20"
      },
      "t_mapping(t_address,t_mapping(t_address,t_uint256))": {
        "encoding": "mapping",
        "key": "t_address",
        "label": "mapping(address => mapping(address => uint256))",
        "numberOfBytes": "32",
        "value": "t_mapping(t_address,t_uint256)"
      },
      "t_mapping(t_address,t_uint256)": {
        "encoding": "mapping",
        "key": "t_address",
        "label": "mapping(address => uint256)",
        "numberOfBytes": "32",
        "value": "t_uint256"
      },
      "t_string_storage": {
        "encoding": "bytes",
        "label": "string",
        "numberOfBytes": "32"
      },
      "t_uint256": {
        "encoding": "inplace",
        "label": "uint256",
        "numberOfBytes": "32"
      }
    }
  }
}