{
  "address": "0x72abDb6f4cbb9c30B02C9a921F1dbD43c580731F",
  "abi": [
    {
      "inputs": [
        {
          "internalType": "address",
          "name": "underlyingToken_",
          "type": "address"
        },
        {
          "internalType": "address",
          "name": "quoteToken_",
          "type": "address"
        },
        {
          "internalType": "address",
          "name": "option$0_5_",
          "type": "address"
        },
        {
          "internalType": "address",
          "name": "option$1_",
          "type": "address"
        },
        {
          "internalType": "address",
          "name": "option$2_",
          "type": "address"
        },
        {
          "internalType": "address",
          "name": "option$4_",
          "type": "address"
        },
        {
          "internalType": "address",
          "name": "option$8_",
          "type": "address"
        },
        {
          "internalType": "address",
          "name": "option$16_",
          "type": "address"
        }
      ],
      "stateMutability": "nonpayable",
      "type": "constructor"
    },
    {
      "inputs": [],
      "name": "getOptionAddress",
      "outputs": [
        {
          "internalType": "address",
          "name": "",
          "type": "address"
        },
        {
          "internalType": "address",
          "name": "",
          "type": "address"
        },
        {
          "internalType": "address",
          "name": "",
          "type": "address"
        },
        {
          "internalType": "address",
          "name": "",
          "type": "address"
        },
        {
          "internalType": "address",
          "name": "",
          "type": "address"
        },
        {
          "internalType": "address",
          "name": "",
          "type": "address"
        }
      ],
      "stateMutability": "view",
      "type": "function"
    },
    {
      "inputs": [],
      "name": "getOptionAmount",
      "outputs": [
        {
          "components": [
            {
              "internalType": "uint256",
              "name": "$0_5",
              "type": "uint256"
            },
            {
              "internalType": "uint256",
              "name": "$1",
              "type": "uint256"
            },
            {
              "internalType": "uint256",
              "name": "$2",
              "type": "uint256"
            },
            {
              "internalType": "uint256",
              "name": "$4",
              "type": "uint256"
            },
            {
              "internalType": "uint256",
              "name": "$8",
              "type": "uint256"
            },
            {
              "internalType": "uint256",
              "name": "$16",
              "type": "uint256"
            }
          ],
          "internalType": "struct OptionViewer.ExercisedAmount",
          "name": "",
          "type": "tuple"
        },
        {
          "components": [
            {
              "internalType": "uint256",
              "name": "$0_5",
              "type": "uint256"
            },
            {
              "internalType": "uint256",
              "name": "$1",
              "type": "uint256"
            },
            {
              "internalType": "uint256",
              "name": "$2",
              "type": "uint256"
            },
            {
              "internalType": "uint256",
              "name": "$4",
              "type": "uint256"
            },
            {
              "internalType": "uint256",
              "name": "$8",
              "type": "uint256"
            },
            {
              "internalType": "uint256",
              "name": "$16",
              "type": "uint256"
            }
          ],
          "internalType": "struct OptionViewer.OptionTotalSupply",
          "name": "",
          "type": "tuple"
        }
      ],
      "stateMutability": "view",
      "type": "function"
    },
    {
      "inputs": [
        {
          "internalType": "address",
          "name": "user",
          "type": "address"
        }
      ],
      "name": "getUserBalance",
      "outputs": [
        {
          "components": [
            {
              "internalType": "uint256",
              "name": "$0_5",
              "type": "uint256"
            },
            {
              "internalType": "uint256",
              "name": "$1",
              "type": "uint256"
            },
            {
              "internalType": "uint256",
              "name": "$2",
              "type": "uint256"
            },
            {
              "internalType": "uint256",
              "name": "$4",
              "type": "uint256"
            },
            {
              "internalType": "uint256",
              "name": "$8",
              "type": "uint256"
            },
            {
              "internalType": "uint256",
              "name": "$16",
              "type": "uint256"
            }
          ],
          "internalType": "struct OptionViewer.LockedCollateral",
          "name": "",
          "type": "tuple"
        },
        {
          "components": [
            {
              "internalType": "uint256",
              "name": "$0_5",
              "type": "uint256"
            },
            {
              "internalType": "uint256",
              "name": "$1",
              "type": "uint256"
            },
            {
              "internalType": "uint256",
              "name": "$2",
              "type": "uint256"
            },
            {
              "internalType": "uint256",
              "name": "$4",
              "type": "uint256"
            },
            {
              "internalType": "uint256",
              "name": "$8",
              "type": "uint256"
            },
            {
              "internalType": "uint256",
              "name": "$16",
              "type": "uint256"
            }
          ],
          "internalType": "struct OptionViewer.OptionTokenBalance",
          "name": "",
          "type": "tuple"
        },
        {
          "components": [
            {
              "internalType": "uint256",
              "name": "$0_5",
              "type": "uint256"
            },
            {
              "internalType": "uint256",
              "name": "$1",
              "type": "uint256"
            },
            {
              "internalType": "uint256",
              "name": "$2",
              "type": "uint256"
            },
            {
              "internalType": "uint256",
              "name": "$4",
              "type": "uint256"
            },
            {
              "internalType": "uint256",
              "name": "$8",
              "type": "uint256"
            },
            {
              "internalType": "uint256",
              "name": "$16",
              "type": "uint256"
            }
          ],
          "internalType": "struct OptionViewer.UnderlyingTokenAllowance",
          "name": "",
          "type": "tuple"
        },
        {
          "components": [
            {
              "internalType": "uint256",
              "name": "$0_5",
              "type": "uint256"
            },
            {
              "internalType": "uint256",
              "name": "$1",
              "type": "uint256"
            },
            {
              "internalType": "uint256",
              "name": "$2",
              "type": "uint256"
            },
            {
              "internalType": "uint256",
              "name": "$4",
              "type": "uint256"
            },
            {
              "internalType": "uint256",
              "name": "$8",
              "type": "uint256"
            },
            {
              "internalType": "uint256",
              "name": "$16",
              "type": "uint256"
            }
          ],
          "internalType": "struct OptionViewer.QuoteTokenAllowance",
          "name": "",
          "type": "tuple"
        },
        {
          "internalType": "uint256",
          "name": "underlyingTokenBalance",
          "type": "uint256"
        },
        {
          "internalType": "uint256",
          "name": "quoteTokenBalance",
          "type": "uint256"
        }
      ],
      "stateMutability": "view",
      "type": "function"
    }
  ],
  "transactionHash": "0x5cda9916aebb403921261f43b2aad383e5d75d7b10e28f45a31beef113e4adb8",
  "args": [
    "0xd2a46071A279245b25859609C3de9305e6D5b3F2",
    "0xf3F8E2d3ab08BD619A794A85626970731c4174aA",
    "0xCc06CE4304BFc492c7A4874cBd0EAf58328Cc5cA",
    "0xa75Dcfb1C57C01AcA1258beBE17479E600951DfE",
    "0x06e8a3b59043aA70a01d24A86496BFB1E20Cd96f",
    "0x321183017Fa844feFF544Cf4081e741617F0545E",
    "0xAE0c8c303581c02f39D8E9291112979AAc9Bc7C7",
    "0x13A13C0cC08758012393F48f3c9f5Af260722f75"
  ],
  "numDeployments": 1,
  "solcInputHash": "501ba8b529fd66ee32fa83540c509538",
  "bytecode": "0x6101806040523480156200001257600080fd5b5060405162001f2638038062001f2683398101604081905262000035916200008f565b6001600160a01b0397881660805295871660a05293861660c05291851660e052841661010052831661012052821661014052166101605262000137565b80516001600160a01b03811681146200008a57600080fd5b919050565b600080600080600080600080610100898b031215620000ad57600080fd5b620000b88962000072565b9750620000c860208a0162000072565b9650620000d860408a0162000072565b9550620000e860608a0162000072565b9450620000f860808a0162000072565b93506200010860a08a0162000072565b92506200011860c08a0162000072565b91506200012860e08a0162000072565b90509295985092959890939650565b60805160a05160c05160e05161010051610120516101405161016051611c3c620002ea6000396000818161015f015281816104b1015281816107e401528181610c5c01528181610fcd0152818161140101526118630152600081816101370152818161042a0152818161075d01528181610bca01528181610f3b0152818161134701526117a901526000818161010f015281816103a3015281816106d601528181610b3801528181610ea90152818161128d01526116ef01526000818160e50152818161031c0152818161064f01528181610aa601528181610e17015281816111d3015261163501526000818160bd01528181610295015281816105c801528181610a1401528181610d8501528181611119015261157b01526000818160980152818161020e015281816105410152818161098301528181610cf40152818161106301526114c50152600081816114ef015281816115a9015281816116630152818161171d015281816117d70152818161189101526119a701526000818161108d0152818161114701528181611201015281816112bb015281816113750152818161142f015261191d0152611c3c6000f3fe608060405234801561001057600080fd5b50600436106100415760003560e01c80630b676738146100465780634773489214610065578063c22a475d1461008a575b600080fd5b61004e61018f565b60405161005c929190611a26565b60405180910390f35b610078610073366004611aaf565b61086f565b60405161005c96959493929190611ad8565b604080516001600160a01b037f0000000000000000000000000000000000000000000000000000000000000000811682527f0000000000000000000000000000000000000000000000000000000000000000811660208301527f00000000000000000000000000000000000000000000000000000000000000008116928201929092527f0000000000000000000000000000000000000000000000000000000000000000821660608201527f0000000000000000000000000000000000000000000000000000000000000000821660808201527f00000000000000000000000000000000000000000000000000000000000000009190911660a082015260c00161005c565b6101c86040518060c001604052806000815260200160008152602001600081526020016000815260200160008152602001600081525090565b6102016040518060c001604052806000815260200160008152602001600081526020016000815260200160008152602001600081525090565b6040518060c001604052807f00000000000000000000000000000000000000000000000000000000000000006001600160a01b0316635e090e026040518163ffffffff1660e01b8152600401602060405180830381865afa15801561026a573d6000803e3d6000fd5b505050506040513d601f19601f8201168201806040525081019061028e9190611bed565b81526020017f00000000000000000000000000000000000000000000000000000000000000006001600160a01b0316635e090e026040518163ffffffff1660e01b8152600401602060405180830381865afa1580156102f1573d6000803e3d6000fd5b505050506040513d601f19601f820116820180604052508101906103159190611bed565b81526020017f00000000000000000000000000000000000000000000000000000000000000006001600160a01b0316635e090e026040518163ffffffff1660e01b8152600401602060405180830381865afa158015610378573d6000803e3d6000fd5b505050506040513d601f19601f8201168201806040525081019061039c9190611bed565b81526020017f00000000000000000000000000000000000000000000000000000000000000006001600160a01b0316635e090e026040518163ffffffff1660e01b8152600401602060405180830381865afa1580156103ff573d6000803e3d6000fd5b505050506040513d601f19601f820116820180604052508101906104239190611bed565b81526020017f00000000000000000000000000000000000000000000000000000000000000006001600160a01b0316635e090e026040518163ffffffff1660e01b8152600401602060405180830381865afa158015610486573d6000803e3d6000fd5b505050506040513d601f19601f820116820180604052508101906104aa9190611bed565b81526020017f00000000000000000000000000000000000000000000000000000000000000006001600160a01b0316635e090e026040518163ffffffff1660e01b8152600401602060405180830381865afa15801561050d573d6000803e3d6000fd5b505050506040513d601f19601f820116820180604052508101906105319190611bed565b8152506040518060c001604052807f00000000000000000000000000000000000000000000000000000000000000006001600160a01b03166318160ddd6040518163ffffffff1660e01b8152600401602060405180830381865afa15801561059d573d6000803e3d6000fd5b505050506040513d601f19601f820116820180604052508101906105c19190611bed565b81526020017f00000000000000000000000000000000000000000000000000000000000000006001600160a01b03166318160ddd6040518163ffffffff1660e01b8152600401602060405180830381865afa158015610624573d6000803e3d6000fd5b505050506040513d601f19601f820116820180604052508101906106489190611bed565b81526020017f00000000000000000000000000000000000000000000000000000000000000006001600160a01b03166318160ddd6040518163ffffffff1660e01b8152600401602060405180830381865afa1580156106ab573d6000803e3d6000fd5b505050506040513d601f19601f820116820180604052508101906106cf9190611bed565b81526020017f00000000000000000000000000000000000000000000000000000000000000006001600160a01b03166318160ddd6040518163ffffffff1660e01b8152600401602060405180830381865afa158015610732573d6000803e3d6000fd5b505050506040513d601f19601f820116820180604052508101906107569190611bed565b81526020017f00000000000000000000000000000000000000000000000000000000000000006001600160a01b03166318160ddd6040518163ffffffff1660e01b8152600401602060405180830381865afa1580156107b9573d6000803e3d6000fd5b505050506040513d601f19601f820116820180604052508101906107dd9190611bed565b81526020017f00000000000000000000000000000000000000000000000000000000000000006001600160a01b03166318160ddd6040518163ffffffff1660e01b8152600401602060405180830381865afa158015610840573d6000803e3d6000fd5b505050506040513d601f19601f820116820180604052508101906108649190611bed565b815250915091509091565b6108a86040518060c001604052806000815260200160008152602001600081526020016000815260200160008152602001600081525090565b6108e16040518060c001604052806000815260200160008152602001600081526020016000815260200160008152602001600081525090565b61091a6040518060c001604052806000815260200160008152602001600081526020016000815260200160008152602001600081525090565b6109536040518060c001604052806000815260200160008152602001600081526020016000815260200160008152602001600081525090565b6040805160c08101918290526352fee2ef60e11b9091526001600160a01b0386811660c4830152600091829181907f00000000000000000000000000000000000000000000000000000000000000001663a5fdc5de60e48301602060405180830381865afa1580156109c9573d6000803e3d6000fd5b505050506040513d601f19601f820116820180604052508101906109ed9190611bed565b81526040516352fee2ef60e11b81526001600160a01b038a811660048301526020909201917f0000000000000000000000000000000000000000000000000000000000000000169063a5fdc5de90602401602060405180830381865afa158015610a5b573d6000803e3d6000fd5b505050506040513d601f19601f82011682018060405250810190610a7f9190611bed565b81526040516352fee2ef60e11b81526001600160a01b038a811660048301526020909201917f0000000000000000000000000000000000000000000000000000000000000000169063a5fdc5de90602401602060405180830381865afa158015610aed573d6000803e3d6000fd5b505050506040513d601f19601f82011682018060405250810190610b119190611bed565b81526040516352fee2ef60e11b81526001600160a01b038a811660048301526020909201917f0000000000000000000000000000000000000000000000000000000000000000169063a5fdc5de90602401602060405180830381865afa158015610b7f573d6000803e3d6000fd5b505050506040513d601f19601f82011682018060405250810190610ba39190611bed565b81526040516352fee2ef60e11b81526001600160a01b038a811660048301526020909201917f0000000000000000000000000000000000000000000000000000000000000000169063a5fdc5de90602401602060405180830381865afa158015610c11573d6000803e3d6000fd5b505050506040513d601f19601f82011682018060405250810190610c359190611bed565b81526040516352fee2ef60e11b81526001600160a01b038a811660048301526020909201917f0000000000000000000000000000000000000000000000000000000000000000169063a5fdc5de90602401602060405180830381865afa158015610ca3573d6000803e3d6000fd5b505050506040513d601f19601f82011682018060405250810190610cc79190611bed565b90526040805160c08101918290526370a0823160e01b9091526001600160a01b0389811660c483015281907f0000000000000000000000000000000000000000000000000000000000000000166370a0823160e48301602060405180830381865afa158015610d3a573d6000803e3d6000fd5b505050506040513d601f19601f82011682018060405250810190610d5e9190611bed565b81526040516370a0823160e01b81526001600160a01b038b811660048301526020909201917f000000000000000000000000000000000000000000000000000000000000000016906370a0823190602401602060405180830381865afa158015610dcc573d6000803e3d6000fd5b505050506040513d601f19601f82011682018060405250810190610df09190611bed565b81526040516370a0823160e01b81526001600160a01b038b811660048301526020909201917f000000000000000000000000000000000000000000000000000000000000000016906370a0823190602401602060405180830381865afa158015610e5e573d6000803e3d6000fd5b505050506040513d601f19601f82011682018060405250810190610e829190611bed565b81526040516370a0823160e01b81526001600160a01b038b811660048301526020909201917f000000000000000000000000000000000000000000000000000000000000000016906370a0823190602401602060405180830381865afa158015610ef0573d6000803e3d6000fd5b505050506040513d601f19601f82011682018060405250810190610f149190611bed565b81526040516370a0823160e01b81526001600160a01b038b811660048301526020909201917f000000000000000000000000000000000000000000000000000000000000000016906370a0823190602401602060405180830381865afa158015610f82573d6000803e3d6000fd5b505050506040513d601f19601f82011682018060405250810190610fa69190611bed565b81526040516370a0823160e01b81526001600160a01b038b811660048301526020909201917f000000000000000000000000000000000000000000000000000000000000000016906370a0823190602401602060405180830381865afa158015611014573d6000803e3d6000fd5b505050506040513d601f19601f820116820180604052508101906110389190611bed565b90526040805160c0810191829052636eb1769f60e11b9091526001600160a01b038a811660c48301527f0000000000000000000000000000000000000000000000000000000000000000811660e483015281907f00000000000000000000000000000000000000000000000000000000000000001663dd62ed3e6101048301602060405180830381865afa1580156110d4573d6000803e3d6000fd5b505050506040513d601f19601f820116820180604052508101906110f89190611bed565b8152604051636eb1769f60e11b81526001600160a01b038c811660048301527f0000000000000000000000000000000000000000000000000000000000000000811660248301526020909201917f0000000000000000000000000000000000000000000000000000000000000000169063dd62ed3e90604401602060405180830381865afa15801561118e573d6000803e3d6000fd5b505050506040513d601f19601f820116820180604052508101906111b29190611bed565b8152604051636eb1769f60e11b81526001600160a01b038c811660048301527f0000000000000000000000000000000000000000000000000000000000000000811660248301526020909201917f0000000000000000000000000000000000000000000000000000000000000000169063dd62ed3e90604401602060405180830381865afa158015611248573d6000803e3d6000fd5b505050506040513d601f19601f8201168201806040525081019061126c9190611bed565b8152604051636eb1769f60e11b81526001600160a01b038c811660048301527f0000000000000000000000000000000000000000000000000000000000000000811660248301526020909201917f0000000000000000000000000000000000000000000000000000000000000000169063dd62ed3e90604401602060405180830381865afa158015611302573d6000803e3d6000fd5b505050506040513d601f19601f820116820180604052508101906113269190611bed565b8152604051636eb1769f60e11b81526001600160a01b038c811660048301527f0000000000000000000000000000000000000000000000000000000000000000811660248301526020909201917f0000000000000000000000000000000000000000000000000000000000000000169063dd62ed3e90604401602060405180830381865afa1580156113bc573d6000803e3d6000fd5b505050506040513d601f19601f820116820180604052508101906113e09190611bed565b8152604051636eb1769f60e11b81526001600160a01b038c811660048301527f0000000000000000000000000000000000000000000000000000000000000000811660248301526020909201917f0000000000000000000000000000000000000000000000000000000000000000169063dd62ed3e90604401602060405180830381865afa158015611476573d6000803e3d6000fd5b505050506040513d601f19601f8201168201806040525081019061149a9190611bed565b90526040805160c0810191829052636eb1769f60e11b9091526001600160a01b038b811660c48301527f0000000000000000000000000000000000000000000000000000000000000000811660e483015281907f00000000000000000000000000000000000000000000000000000000000000001663dd62ed3e6101048301602060405180830381865afa158015611536573d6000803e3d6000fd5b505050506040513d601f19601f8201168201806040525081019061155a9190611bed565b8152604051636eb1769f60e11b81526001600160a01b038d811660048301527f0000000000000000000000000000000000000000000000000000000000000000811660248301526020909201917f0000000000000000000000000000000000000000000000000000000000000000169063dd62ed3e90604401602060405180830381865afa1580156115f0573d6000803e3d6000fd5b505050506040513d601f19601f820116820180604052508101906116149190611bed565b8152604051636eb1769f60e11b81526001600160a01b038d811660048301527f0000000000000000000000000000000000000000000000000000000000000000811660248301526020909201917f0000000000000000000000000000000000000000000000000000000000000000169063dd62ed3e90604401602060405180830381865afa1580156116aa573d6000803e3d6000fd5b505050506040513d601f19601f820116820180604052508101906116ce9190611bed565b8152604051636eb1769f60e11b81526001600160a01b038d811660048301527f0000000000000000000000000000000000000000000000000000000000000000811660248301526020909201917f0000000000000000000000000000000000000000000000000000000000000000169063dd62ed3e90604401602060405180830381865afa158015611764573d6000803e3d6000fd5b505050506040513d601f19601f820116820180604052508101906117889190611bed565b8152604051636eb1769f60e11b81526001600160a01b038d811660048301527f0000000000000000000000000000000000000000000000000000000000000000811660248301526020909201917f0000000000000000000000000000000000000000000000000000000000000000169063dd62ed3e90604401602060405180830381865afa15801561181e573d6000803e3d6000fd5b505050506040513d601f19601f820116820180604052508101906118429190611bed565b8152604051636eb1769f60e11b81526001600160a01b038d811660048301527f0000000000000000000000000000000000000000000000000000000000000000811660248301526020909201917f0000000000000000000000000000000000000000000000000000000000000000169063dd62ed3e90604401602060405180830381865afa1580156118d8573d6000803e3d6000fd5b505050506040513d601f19601f820116820180604052508101906118fc9190611bed565b90526040516370a0823160e01b81526001600160a01b038c811660048301527f000000000000000000000000000000000000000000000000000000000000000016906370a0823190602401602060405180830381865afa158015611964573d6000803e3d6000fd5b505050506040513d601f19601f820116820180604052508101906119889190611bed565b6040516370a0823160e01b81526001600160a01b038d811660048301527f000000000000000000000000000000000000000000000000000000000000000016906370a0823190602401602060405180830381865afa1580156119ee573d6000803e3d6000fd5b505050506040513d601f19601f82011682018060405250810190611a129190611bed565b949c939b5091995097509550909350915050565b6101808101611a6a8285805182526020810151602083015260408101516040830152606081015160608301526080810151608083015260a081015160a08301525050565b825160c0830152602083015160e083015260408301516101008301526060830151610120830152608083015161014083015260a08301516101608301525b9392505050565b600060208284031215611ac157600080fd5b81356001600160a01b0381168114611aa857600080fd5b6103408101611b1c8289805182526020810151602083015260408101516040830152606081015160608301526080810151608083015260a081015160a08301525050565b865160c0830152602087015160e083015260408701516101008301526060870151610120830152608087015161014083015260a0870151610160830152855161018083015260208601516101a083015260408601516101c083015260608601516101e0830152608086015161020083015260a086015161022083015284516102408301526020850151610260830152604085015161028083015260608501516102a083015260808501516102c083015260a08501516102e08301526103008201939093526103200152949350505050565b600060208284031215611bff57600080fd5b505191905056fea26469706673582212209af4f2a9b93638842ef914840668ee3725dcea88f3bee797ee060c92c4e63b7064736f6c63430008110033",
  "devdoc": {
    "kind": "dev",
    "methods": {},
    "version": 1
  },
  "userdoc": {
    "kind": "user",
    "methods": {},
    "version": 1
  },
  "storageLayout": {
    "storage": [],
    "types": null
  }
}