{
  "address": "0x4e9bE6ca8899e9485F087f32e606BB9e2faC006E",
  "abi": [
    {
      "inputs": [
        {
          "internalType": "address",
          "name": "underlyingToken_",
          "type": "address"
        },
        {
          "internalType": "address",
          "name": "quoteToken_",
          "type": "address"
        },
        {
          "internalType": "address",
          "name": "option$0_5_",
          "type": "address"
        },
        {
          "internalType": "address",
          "name": "option$1_",
          "type": "address"
        },
        {
          "internalType": "address",
          "name": "option$2_",
          "type": "address"
        },
        {
          "internalType": "address",
          "name": "option$4_",
          "type": "address"
        },
        {
          "internalType": "address",
          "name": "option$8_",
          "type": "address"
        },
        {
          "internalType": "address",
          "name": "option$16_",
          "type": "address"
        }
      ],
      "stateMutability": "nonpayable",
      "type": "constructor"
    },
    {
      "inputs": [
        {
          "internalType": "address",
          "name": "user",
          "type": "address"
        }
      ],
      "name": "getUserBalance",
      "outputs": [
        {
          "components": [
            {
              "internalType": "uint256",
              "name": "$0_5",
              "type": "uint256"
            },
            {
              "internalType": "uint256",
              "name": "$1",
              "type": "uint256"
            },
            {
              "internalType": "uint256",
              "name": "$2",
              "type": "uint256"
            },
            {
              "internalType": "uint256",
              "name": "$4",
              "type": "uint256"
            },
            {
              "internalType": "uint256",
              "name": "$8",
              "type": "uint256"
            },
            {
              "internalType": "uint256",
              "name": "$16",
              "type": "uint256"
            }
          ],
          "internalType": "struct OptionViewer.LockedCollateral",
          "name": "",
          "type": "tuple"
        },
        {
          "components": [
            {
              "internalType": "uint256",
              "name": "$0_5",
              "type": "uint256"
            },
            {
              "internalType": "uint256",
              "name": "$1",
              "type": "uint256"
            },
            {
              "internalType": "uint256",
              "name": "$2",
              "type": "uint256"
            },
            {
              "internalType": "uint256",
              "name": "$4",
              "type": "uint256"
            },
            {
              "internalType": "uint256",
              "name": "$8",
              "type": "uint256"
            },
            {
              "internalType": "uint256",
              "name": "$16",
              "type": "uint256"
            }
          ],
          "internalType": "struct OptionViewer.OptionTokenBalance",
          "name": "",
          "type": "tuple"
        },
        {
          "components": [
            {
              "internalType": "uint256",
              "name": "$0_5",
              "type": "uint256"
            },
            {
              "internalType": "uint256",
              "name": "$1",
              "type": "uint256"
            },
            {
              "internalType": "uint256",
              "name": "$2",
              "type": "uint256"
            },
            {
              "internalType": "uint256",
              "name": "$4",
              "type": "uint256"
            },
            {
              "internalType": "uint256",
              "name": "$8",
              "type": "uint256"
            },
            {
              "internalType": "uint256",
              "name": "$16",
              "type": "uint256"
            }
          ],
          "internalType": "struct OptionViewer.UnderlyingTokenAllowance",
          "name": "",
          "type": "tuple"
        },
        {
          "components": [
            {
              "internalType": "uint256",
              "name": "$0_5",
              "type": "uint256"
            },
            {
              "internalType": "uint256",
              "name": "$1",
              "type": "uint256"
            },
            {
              "internalType": "uint256",
              "name": "$2",
              "type": "uint256"
            },
            {
              "internalType": "uint256",
              "name": "$4",
              "type": "uint256"
            },
            {
              "internalType": "uint256",
              "name": "$8",
              "type": "uint256"
            },
            {
              "internalType": "uint256",
              "name": "$16",
              "type": "uint256"
            }
          ],
          "internalType": "struct OptionViewer.QuoteTokenAllowance",
          "name": "",
          "type": "tuple"
        },
        {
          "internalType": "uint256",
          "name": "underlyingTokenBalance",
          "type": "uint256"
        },
        {
          "internalType": "uint256",
          "name": "quoteTokenBalance",
          "type": "uint256"
        }
      ],
      "stateMutability": "view",
      "type": "function"
    }
  ],
  "transactionHash": "0xa3d9b55db6fc6700ef2ce4d6202ad601dd73d7ec8c6b9bb8e580f6c69c0cf465",
  "args": [
    "0xd2a46071A279245b25859609C3de9305e6D5b3F2",
    "0xf3F8E2d3ab08BD619A794A85626970731c4174aA",
    "0x5D45a5ADa82ecf78021E9b4518036a3B649e5a35",
    "0x0820Ed58A1f0d6FF42712a1877E368f183C94219",
    "0xefa4841C3FA0bCC33987DA112f7EA3b1aC7541D9",
    "0x8705373587dA69FB99181938E1463982f0Fa5b56",
    "0xb28f8E47818dd44FA3d94928BE42809494FD506B",
    "0x5c4871CA3EB28C1c552E5DaCF31B20BE939E156d"
  ],
  "numDeployments": 1,
  "solcInputHash": "8ceacc82c1ed3401597f1382cadcbd1e",
  "bytecode": "0x6101806040523480156200001257600080fd5b50604051620016183803806200161883398101604081905262000035916200008f565b6001600160a01b0397881660805295871660a05293861660c05291851660e052841661010052831661012052821661014052166101605262000137565b80516001600160a01b03811681146200008a57600080fd5b919050565b600080600080600080600080610100898b031215620000ad57600080fd5b620000b88962000072565b9750620000c860208a0162000072565b9650620000d860408a0162000072565b9550620000e860608a0162000072565b9450620000f860808a0162000072565b93506200010860a08a0162000072565b92506200011860c08a0162000072565b91506200012860e08a0162000072565b90509295985092959890939650565b60805160a05160c05160e051610100516101205161014051610160516113a96200026f6000396000818161044b015281816107bc01528181610bf001526110520152600081816103b90152818161072a01528181610b360152610f980152600081816103270152818161069801528181610a7c0152610ede01526000818161029501528181610606015281816109c20152610e2401526000818161020301528181610574015281816109080152610d6a015260008181610172015281816104e3015281816108520152610cb4015260008181610cde01528181610d9801528181610e5201528181610f0c01528181610fc601528181611080015261119601526000818161087c01528181610936015281816109f001528181610aaa01528181610b6401528181610c1e015261110c01526113a96000f3fe608060405234801561001057600080fd5b506004361061002b5760003560e01c80634773489214610030575b600080fd5b61004361003e366004611215565b61005e565b60405161005596959493929190611245565b60405180910390f35b6100976040518060c001604052806000815260200160008152602001600081526020016000815260200160008152602001600081525090565b6100d06040518060c001604052806000815260200160008152602001600081526020016000815260200160008152602001600081525090565b6101096040518060c001604052806000815260200160008152602001600081526020016000815260200160008152602001600081525090565b6101426040518060c001604052806000815260200160008152602001600081526020016000815260200160008152602001600081525090565b6040805160c08101918290526352fee2ef60e11b9091526001600160a01b0386811660c4830152600091829181907f00000000000000000000000000000000000000000000000000000000000000001663a5fdc5de60e48301602060405180830381865afa1580156101b8573d6000803e3d6000fd5b505050506040513d601f19601f820116820180604052508101906101dc919061135a565b81526040516352fee2ef60e11b81526001600160a01b038a811660048301526020909201917f0000000000000000000000000000000000000000000000000000000000000000169063a5fdc5de90602401602060405180830381865afa15801561024a573d6000803e3d6000fd5b505050506040513d601f19601f8201168201806040525081019061026e919061135a565b81526040516352fee2ef60e11b81526001600160a01b038a811660048301526020909201917f0000000000000000000000000000000000000000000000000000000000000000169063a5fdc5de90602401602060405180830381865afa1580156102dc573d6000803e3d6000fd5b505050506040513d601f19601f82011682018060405250810190610300919061135a565b81526040516352fee2ef60e11b81526001600160a01b038a811660048301526020909201917f0000000000000000000000000000000000000000000000000000000000000000169063a5fdc5de90602401602060405180830381865afa15801561036e573d6000803e3d6000fd5b505050506040513d601f19601f82011682018060405250810190610392919061135a565b81526040516352fee2ef60e11b81526001600160a01b038a811660048301526020909201917f0000000000000000000000000000000000000000000000000000000000000000169063a5fdc5de90602401602060405180830381865afa158015610400573d6000803e3d6000fd5b505050506040513d601f19601f82011682018060405250810190610424919061135a565b81526040516352fee2ef60e11b81526001600160a01b038a811660048301526020909201917f0000000000000000000000000000000000000000000000000000000000000000169063a5fdc5de90602401602060405180830381865afa158015610492573d6000803e3d6000fd5b505050506040513d601f19601f820116820180604052508101906104b6919061135a565b90526040805160c08101918290526370a0823160e01b9091526001600160a01b0389811660c483015281907f0000000000000000000000000000000000000000000000000000000000000000166370a0823160e48301602060405180830381865afa158015610529573d6000803e3d6000fd5b505050506040513d601f19601f8201168201806040525081019061054d919061135a565b81526040516370a0823160e01b81526001600160a01b038b811660048301526020909201917f000000000000000000000000000000000000000000000000000000000000000016906370a0823190602401602060405180830381865afa1580156105bb573d6000803e3d6000fd5b505050506040513d601f19601f820116820180604052508101906105df919061135a565b81526040516370a0823160e01b81526001600160a01b038b811660048301526020909201917f000000000000000000000000000000000000000000000000000000000000000016906370a0823190602401602060405180830381865afa15801561064d573d6000803e3d6000fd5b505050506040513d601f19601f82011682018060405250810190610671919061135a565b81526040516370a0823160e01b81526001600160a01b038b811660048301526020909201917f000000000000000000000000000000000000000000000000000000000000000016906370a0823190602401602060405180830381865afa1580156106df573d6000803e3d6000fd5b505050506040513d601f19601f82011682018060405250810190610703919061135a565b81526040516370a0823160e01b81526001600160a01b038b811660048301526020909201917f000000000000000000000000000000000000000000000000000000000000000016906370a0823190602401602060405180830381865afa158015610771573d6000803e3d6000fd5b505050506040513d601f19601f82011682018060405250810190610795919061135a565b81526040516370a0823160e01b81526001600160a01b038b811660048301526020909201917f000000000000000000000000000000000000000000000000000000000000000016906370a0823190602401602060405180830381865afa158015610803573d6000803e3d6000fd5b505050506040513d601f19601f82011682018060405250810190610827919061135a565b90526040805160c0810191829052636eb1769f60e11b9091526001600160a01b038a811660c48301527f0000000000000000000000000000000000000000000000000000000000000000811660e483015281907f00000000000000000000000000000000000000000000000000000000000000001663dd62ed3e6101048301602060405180830381865afa1580156108c3573d6000803e3d6000fd5b505050506040513d601f19601f820116820180604052508101906108e7919061135a565b8152604051636eb1769f60e11b81526001600160a01b038c811660048301527f0000000000000000000000000000000000000000000000000000000000000000811660248301526020909201917f0000000000000000000000000000000000000000000000000000000000000000169063dd62ed3e90604401602060405180830381865afa15801561097d573d6000803e3d6000fd5b505050506040513d601f19601f820116820180604052508101906109a1919061135a565b8152604051636eb1769f60e11b81526001600160a01b038c811660048301527f0000000000000000000000000000000000000000000000000000000000000000811660248301526020909201917f0000000000000000000000000000000000000000000000000000000000000000169063dd62ed3e90604401602060405180830381865afa158015610a37573d6000803e3d6000fd5b505050506040513d601f19601f82011682018060405250810190610a5b919061135a565b8152604051636eb1769f60e11b81526001600160a01b038c811660048301527f0000000000000000000000000000000000000000000000000000000000000000811660248301526020909201917f0000000000000000000000000000000000000000000000000000000000000000169063dd62ed3e90604401602060405180830381865afa158015610af1573d6000803e3d6000fd5b505050506040513d601f19601f82011682018060405250810190610b15919061135a565b8152604051636eb1769f60e11b81526001600160a01b038c811660048301527f0000000000000000000000000000000000000000000000000000000000000000811660248301526020909201917f0000000000000000000000000000000000000000000000000000000000000000169063dd62ed3e90604401602060405180830381865afa158015610bab573d6000803e3d6000fd5b505050506040513d601f19601f82011682018060405250810190610bcf919061135a565b8152604051636eb1769f60e11b81526001600160a01b038c811660048301527f0000000000000000000000000000000000000000000000000000000000000000811660248301526020909201917f0000000000000000000000000000000000000000000000000000000000000000169063dd62ed3e90604401602060405180830381865afa158015610c65573d6000803e3d6000fd5b505050506040513d601f19601f82011682018060405250810190610c89919061135a565b90526040805160c0810191829052636eb1769f60e11b9091526001600160a01b038b811660c48301527f0000000000000000000000000000000000000000000000000000000000000000811660e483015281907f00000000000000000000000000000000000000000000000000000000000000001663dd62ed3e6101048301602060405180830381865afa158015610d25573d6000803e3d6000fd5b505050506040513d601f19601f82011682018060405250810190610d49919061135a565b8152604051636eb1769f60e11b81526001600160a01b038d811660048301527f0000000000000000000000000000000000000000000000000000000000000000811660248301526020909201917f0000000000000000000000000000000000000000000000000000000000000000169063dd62ed3e90604401602060405180830381865afa158015610ddf573d6000803e3d6000fd5b505050506040513d601f19601f82011682018060405250810190610e03919061135a565b8152604051636eb1769f60e11b81526001600160a01b038d811660048301527f0000000000000000000000000000000000000000000000000000000000000000811660248301526020909201917f0000000000000000000000000000000000000000000000000000000000000000169063dd62ed3e90604401602060405180830381865afa158015610e99573d6000803e3d6000fd5b505050506040513d601f19601f82011682018060405250810190610ebd919061135a565b8152604051636eb1769f60e11b81526001600160a01b038d811660048301527f0000000000000000000000000000000000000000000000000000000000000000811660248301526020909201917f0000000000000000000000000000000000000000000000000000000000000000169063dd62ed3e90604401602060405180830381865afa158015610f53573d6000803e3d6000fd5b505050506040513d601f19601f82011682018060405250810190610f77919061135a565b8152604051636eb1769f60e11b81526001600160a01b038d811660048301527f0000000000000000000000000000000000000000000000000000000000000000811660248301526020909201917f0000000000000000000000000000000000000000000000000000000000000000169063dd62ed3e90604401602060405180830381865afa15801561100d573d6000803e3d6000fd5b505050506040513d601f19601f82011682018060405250810190611031919061135a565b8152604051636eb1769f60e11b81526001600160a01b038d811660048301527f0000000000000000000000000000000000000000000000000000000000000000811660248301526020909201917f0000000000000000000000000000000000000000000000000000000000000000169063dd62ed3e90604401602060405180830381865afa1580156110c7573d6000803e3d6000fd5b505050506040513d601f19601f820116820180604052508101906110eb919061135a565b90526040516370a0823160e01b81526001600160a01b038c811660048301527f000000000000000000000000000000000000000000000000000000000000000016906370a0823190602401602060405180830381865afa158015611153573d6000803e3d6000fd5b505050506040513d601f19601f82011682018060405250810190611177919061135a565b6040516370a0823160e01b81526001600160a01b038d811660048301527f000000000000000000000000000000000000000000000000000000000000000016906370a0823190602401602060405180830381865afa1580156111dd573d6000803e3d6000fd5b505050506040513d601f19601f82011682018060405250810190611201919061135a565b949c939b5091995097509550909350915050565b60006020828403121561122757600080fd5b81356001600160a01b038116811461123e57600080fd5b9392505050565b61034081016112898289805182526020810151602083015260408101516040830152606081015160608301526080810151608083015260a081015160a08301525050565b865160c0830152602087015160e083015260408701516101008301526060870151610120830152608087015161014083015260a0870151610160830152855161018083015260208601516101a083015260408601516101c083015260608601516101e0830152608086015161020083015260a086015161022083015284516102408301526020850151610260830152604085015161028083015260608501516102a083015260808501516102c083015260a08501516102e08301526103008201939093526103200152949350505050565b60006020828403121561136c57600080fd5b505191905056fea26469706673582212205e8156c196fa9a74f3225ef6524a20605c57d6bc861a8cc0f079d202411aa9d564736f6c63430008110033",
  "devdoc": {
    "kind": "dev",
    "methods": {},
    "version": 1
  },
  "userdoc": {
    "kind": "user",
    "methods": {},
    "version": 1
  },
  "storageLayout": {
    "storage": [],
    "types": null
  }
}